:020000040800F2
:1000000000000220B9020008C1020008C502000871
:100010000D03000811030008590300080000000048
:10002000000000000000000000000000A103000824
:10003000A503000800000000A9030008C103000890
:10004000BD030008BD030008BD030008BD03000890
:10005000BD030008BD030008BD030008BD03000880
:10006000BD030008BD030008BD030008BD03000870
:10007000BD030008BD030008BD030008BD03000860
:10008000BD030008BD030008BD030008BD03000850
:10009000BD030008BD030008BD030008BD03000840
:1000A000BD030008BD030008BD030008BD03000830
:1000B000BD030008BD030008BD030008BD03000820
:1000C000BD030008BD030008BD030008BD03000810
:1000D000BD030008BD030008BD030008BD03000800
:1000E000BD030008BD030008BD030008BD030008F0
:1000F000BD030008BD030008BD030008BD030008E0
:10010000BD030008BD030008BD030008BD030008CF
:10011000BD030008BD030008BD030008BD030008BF
:10012000BD030008BD030008BD030008BD030008AF
:10013000BD030008BD030008BD030008BD0300089F
:10014000BD030008BD030008BD030008BD0300088F
:10015000BD030008BD030008BD030008BD0300087F
:10016000BD030008BD030008BD030008BD0300086F
:10017000BD030008BD030008BD0300080000000027
:10018000BD030008BD03000800B583B001F0C2FD47
:10019000384B394A1360394A136039490CE00A6810
:1001A0004B6801F10C04886803E01168196004339E
:1001B00004329842F9D82146324B9942EFD32E4B64
:1001C0001A68314B9A4204D12C4B1A682F4B9A4231
:1001D00000D0FEE7274B2E4A13602E4A13602E4BA9
:1001E0000AE0194651F8082B5B6802E00020106015
:1001F00004329A42FAD30B46284A9342F1D3244B55
:100200001B6813B9234B1B6803B1FEE701F08EFD99
:1002100001A8694601F018FD214C224B1C1BA410BB
:10022000002504E01E4B53F8253098470135AC42B9
:10023000F8DC1D4C1D4B1C1BA410002504E01A4BC0
:1002400053F8253098470135AC42F8DC0198009905
:1002500002F00EF80546164C164B1C1BA41004E0C9
:10026000013C134B53F824309847002CF8DC284607
:1002700001F0BCFCBABADECA000000207400002005
:10028000C8030008E0030008785634123254769808
:1002900078000020D0020020E0030008F0030008EE
:1002A000F0030008F0030008F0030008F003000862
:1002B000F0030008F003000808B5FFF765FF00BF72
:1002C00000BEFEE71EF0040F0CBFEFF30880EFF353
:1002D00009807146364A10472DE9F04182B0074641
:1002E0008846084B5D6B9C6B9E6A074801F0C0FC1A
:1002F000CDF80080384631462A46234601F01AFDE3
:1003000000BEFEE700ED00E0142E000800BEFEE790
:100310001EF0040F0CBFEFF30880EFF30980714665
:10032000244A10472DE9F04182B007468846084B21
:100330005D6B9C6B9E6A074801F09AFCCDF80080CB
:10034000384631462A46234601F0F4FC00BEFEE75B
:1003500000ED00E0242E00081EF0040F0CBFEFF3A8
:100360000880EFF309807146134A10472DE9F041E8
:1003700082B007468846084B5D6B9C6B9E6A0748B7
:1003800001F076FCCDF80080384631462A462346F7
:1003900001F0D0FC00BEFEE700ED00E0302E0008CA
:1003A00000BEFEE700BEFEE700BEFEE770470000AD
:1003B000D9020008250300086D03000800BEFEE70F
:0803C00008B500F043F808BD88
:1003C800882E00080000002078000020882E0008F1
:1003D800000000100000001078000020D402002067
:0803E8000000001000000010ED
:1003F00010B5044600F0FAFE064BA3FB003080095E
:1004000000F098F84FF0FF302146002200F050F83D
:10041000002010BDD34D621008B50B4B1A6842F492
:1004200000721A601A6842F480621A601A6842F414
:1004300080721A60032000F01DF80F20FFF7D8FF2C
:1004400001F02EFF002008BD003C0240024A136864
:1004500001331360704700BF0C010020014B186886
:10046000704700BF0C010020014B1868000C70475A
:10047000002004E010B50446C31E042B03D90A482B
:10048000A42101F0E9FB04F00700084AD36823F433
:10049000E0631B041B0C43EA002040F0BF6040F403
:1004A0000030D06010BD00BF182B000800ED00E048
:1004B00070B504460E4615460F2A03D91A48BC21CA
:1004C00001F0CAFB0F2E03D91748BD2101F0C4FB70
:1004D000164BDB68C3F30223C3F10702042A28BFCB
:1004E0000422191D062901D9D81E00E0002001238D
:1004F00003FA02F2013A324002FA00F183405A1E36
:100500002A400A43002C06DA04F00F041201D2B28A
:10051000074B1A5570BD1201D2B204F1604404F5C4
:10052000614484F8002370BD182B000800ED00E042
:1005300014ED00E00138B0F1807F0AD2064B58601C
:10054000F021064A82F823100020986007221A60E2
:1005500070470120704700BF10E000E000ED00E0B0
:1005600010B50446042805D020B1094840F2B31163
:1005700001F072FB042C05D1064A136843F0040312
:10058000136010BD034A136823F00403136010BD09
:10059000182B000810E000E02DE9F04F83B08046F2
:1005A0000F46A34B984223D003F5806398421FD097
:1005B00003F5806398421BD003F58063984217D0FF
:1005C00003F58063984213D003F5806398420FD0FF
:1005D00003F5806398420BD003F58063984207D0FF
:1005E00003F58063984203D09248C52101F034FBA3
:1005F0003B881BB98F48C62101F02EFB7B68012B7D
:1006000022D9112B20D0022B1ED0122B1CD08A4AAB
:10061000934219D002F58012934215D002F5801250
:10062000934211D0A2F5F81293420DD002F5801238
:10063000934209D002F58012934205D0032B03D0D8
:100640007C48C72101F008FBBB68022B03D979481D
:10065000C82101F001FB00242AE1A1460125A540A3
:100660003B6803EA050AAA4540F021817B68022B1A
:1006700001D0122B4AD13B69C3B3092B36D0ABB39F
:10068000A3B39BB393B3012B30D02FD0022B2DD02B
:100690002CD02BD0032B29D0042B27D026D025D02B
:1006A000052B23D022D0092B20D0062B1ED0092BBE
:1006B0001CD0072B1AD019D018D0082B16D015D063
:1006C00014D0092B12D011D00A2B0FD00ED00B2B27
:1006D0000CD00C2B0AD009D00D2B07D00C2B05D039
:1006E0000F2B03D05348D92101F0B6FAE60808369B
:1006F00058F8261004F0070080000F23834021EAF9
:1007000003023B698340134348F82630D8F8003091
:100710004FEA440B032606FA0BF6F64306EA0302F9
:100720007B6803F0030303FA0BF31343C8F80030AC
:100730007B685A1E012A03D9112B01D0122B1CD120
:10074000FB68032B03D93B48EC2101F085FAD8F86C
:10075000083006EA0302FB6803FA0BF31343C8F8F8
:100760000830D8F8043023EA05037D68C5F3001586
:1007700005FA09F51D43C8F80450D8F80C30334089
:10078000BE6806FA0BF61E43C8F80C607B6813F0CF
:10079000805F00F08C8000230193284B5A6C42F458
:1007A00080425A645B6C03F480430193019BA3086D
:1007B000991C234A52F8211004F0030080000F22F4
:1007C000824021EA02011A4A90453BD002F580623C
:1007D00090452BD002F58062904525D002F58062CD
:1007E00090451FD002F58062904519D002F58062D5
:1007F000904513D002F5806290450DD002F58062DD
:10080000904507D002F58062904501D108221AE098
:10081000092218E0072216E0062214E0052212E061
:10082000042210E003220EE002220CE001220AE082
:10083000000002404C2B000800001110003802405C
:1008400000380140002282400A4302331B4941F82C
:1008500023201B4B1A686FEA0A0303EA0201786837
:1008600010F4803F01D04AEA0201154A1160526833
:1008700003EA0201786810F4003F01D04AEA02015D
:100880000F4A5160926803EA0201786810F4801FF1
:1008900001D04AEA02010A4A9160D268134079689D
:1008A00011F4001F01D04AEA0203054AD360013463
:1008B0000F2C7FF6D2AE03B0BDE8F08F00380140B8
:1008C000003C014070B5064615460C4621B9094862
:1008D00040F2B11101F0C0F9012D04D905484FF4DF
:1008E000D97101F0B9F90DB1B46170BD2404B461DE
:1008F00070BD00BF4C2B0008704700BF002800F0FF
:10090000E38038B504460368704A93420CD002F580
:100910008062934208D002F58062934204D06C4812
:100920004FF4B17101F098F96368013B694A934251
:1009300004D9674840F2631101F08EF9A3683BB116
:10094000B3F5804F04D062484FF4B27101F084F9DE
:10095000E36823F47F7323F0030323B15C4840F280
:10096000651101F079F92369B3F5804F07D0B3F52C
:10097000404F04D056484FF4B37101F06DF96369EC
:10098000012B04D9524840F2671101F065F9A369BF
:1009900033F0FE0304D04E484FF4B47101F05CF91B
:1009A000E36933B1402B04D0494840F2691101F0AA
:1009B00053F9236A33B1802B04D045484FF4B57105
:1009C00001F04AF994F83D3013F0FF0F05D10023F0
:1009D00084F83C302046FFF78FFF242384F83D3015
:1009E0002268136823F00103136000F019FC3A4BEE
:1009F000A3FB00239B0C2268536021686568374A7B
:100A0000954201D8013308E04FF4967202FB03F3DC
:100A1000334AA2FB03239B0901330B6221686368FD
:100A20002E4A934208D85B00B0FBF3F0C0F30B03EF
:100A3000032B2BD8042029E0A5684DB903EB430212
:100A4000B0FBF2F2C2F30B02B2FA82F252090AE0F0
:100A500003EB830202EB8202B0FBF2F2C2F30B0261
:100A6000B2FA82F2520982B935B903EB4303B0FB03
:100A7000F3F040F4004009E003EB830303EB83034E
:100A8000B0FBF3F040F4404000E00120C861226870
:100A9000E169236A0B43136022682169E3680B4311
:100AA000936022686169A3690B43D360226813686D
:100AB00043F00103136000202064202384F83D30BC
:100AC000206384F83E0038BD012070470054004088
:100AD0007C2B00087F1A060083DE1B43A0860100E2
:100AE000D34D621030B583B0044603680F2B03D991
:100AF0009C48F62101F0B0F8236813F0010F45D0AF
:100B00006368012B05D9052B03D09648FB2101F022
:100B1000A3F8954B9B6803F00C03042B0AD0924B6F
:100B20009B6803F00C03082B0CD18F4B5B6813F40C
:100B3000800F07D08C4B1B6813F4003F26D06368EE
:100B400023BBCBE12279894B1A7063687BB1FFF735
:100B500085FC054605E0FFF781FC401B642800F298
:100B6000BF81814B1B6813F4003FF4D00EE0FFF708
:100B700075FC054605E0FFF771FC401B642800F298
:100B8000B181794B1B6813F4003FF4D1236813F053
:100B9000020F6AD0E368012B04D9724840F22D118C
:100BA00001F05AF823691F2B04D96E484FF497714E
:100BB00001F052F86C4B9B6813F00C0F0AD06A4B93
:100BC0009B6803F00C03082B1BD1674B5B6813F485
:100BD000800F16D1644B1B6813F0020F03D0E3683B
:100BE000012B40F081816048036823F0F8012369FC
:100BF000F82292FAA2F2B2FA82F293400B43036017
:100C000033E0E368FBB10122594B1A60FFF726FC81
:100C1000054605E0FFF722FC401B022800F2668132
:100C2000514B1B6813F0020FF4D04F48036823F0B8
:100C3000F8012369F82292FAA2F2B2FA82F2934002
:100C40000B43036011E00022494B1A60FFF706FCDA
:100C5000054605E0FFF702FC401B022800F2488130
:100C6000414B1B6813F0020FF4D1236813F0080FF7
:100C70002ED06369012B04D93A484FF4B77100F0C4
:100C8000EBFF636993B101223A4B1A60FFF7E6FB71
:100C9000054605E0FFF7E2FB401B022800F22A812F
:100CA000314B5B6F13F0020FF4D011E00022314B97
:100CB0001A60FFF7D3FB054605E0FFF7CFFB401BAB
:100CC000022800F21981284B5B6F13F0020FF4D158
:100CD000236813F0040F60D0A368012B06D9052BFD
:100CE00004D020484FF4CC7100F0B6FF00230193EC
:100CF0001D4B1A6C42F080521A641B6C03F0805337
:100D00000193019B1C4A136843F480731360FFF73F
:100D1000A5FB054605E0FFF7A1FB401B022800F2FA
:100D2000ED80154B1B6813F4807FF4D0227A134BAF
:100D30001A70A3688BB1FFF791FB054607E0FFF738
:100D40008DFB401B41F28833984200F2D980064B5C
:100D50001B6F13F0020FF2D01FE0FFF77FFB054679
:100D600016E000BFBC2B00080038024002380240E9
:100D700000004742800E4742007000407038024039
:100D8000FFF76CFB401B41F28833984200F2BA80B7
:100D9000634B1B6F13F0020FF2D1A369022B04D92E
:100DA000604840F2CD1100F057FFA369002B00F01E
:100DB000AB805B4A926802F00C02082A00F0A68021
:100DC000022B78D1E3693BB1B3F5800F04D05548CD
:100DD0004FF4EB7100F040FF236A3F2B04D95148D8
:100DE00040F2D71100F038FF636A323BB3F5BF7FA2
:100DF00004D94C484FF4EC7100F02EFFA36A022B8B
:100E00000AD0042B08D0062B06D0082B04D0454866
:100E100040F2D91100F020FFE36A043B0B2B04D908
:100E200040484FF4ED7100F017FF00223E4B1A606E
:100E3000FFF714FB054604E0FFF710FB401B0228F8
:100E400066D8374B1B6813F0007FF5D1E269236A3F
:100E50001A43636A47F6C07191FAA1F1B1FA81F1C0
:100E60008B401A43A36A5B08013B4FF4403191FA6F
:100E7000A1F1B1FA81F18B401343E26A4FF0706146
:100E800091FAA1F1B1FA81F18A401343244A5360E7
:100E90000122254B1A60FFF7E1FA044604E0FFF750
:100EA000DDFA001B022835D81D4B1B6813F0007FAC
:100EB000F5D0002031E000221B4B1A60FFF7CEFA7C
:100EC000044604E0FFF7CAFA001B022824D8144B9A
:100ED0001B6813F0007FF5D100201EE001201CE00C
:100EE00003201AE0032018E0012016E0032014E09C
:100EF000032012E0032010E003200EE003200CE0AA
:100F000003200AE0032008E0002006E0012004E0BE
:100F1000032002E0032000E0032003B030BD00BF47
:100F200000380240BC2B00086000474270B5044600
:100F30000D460368013B0E2B04D984484FF40E7113
:100F400000F08AFE072D04D9804840F2392100F0D4
:100F500083FE7F4B1B6803F00F03AB4208D2EBB25A
:100F60007B4A1370136803F00F03AB4240F0DB8041
:100F7000236813F0020F1DD0A368A3B1802B12D0F9
:100F8000902B10D0A02B0ED0B02B0CD0C02B0AD0A1
:100F9000D02B08D0E02B06D0F02B04D06B484FF4B8
:100FA000147100F059FE6B498B6823F0F002A368BE
:100FB00013438B60236813F0010F64D06368032B25
:100FC00004D9624840F2572100F046FE6268012AC7
:100FD00005D1604B1B6813F4003F0FD1A5E0931EB1
:100FE000012B05D85B4B1B6813F0007F06D19EE0F8
:100FF000584B1B6813F0020F00F09B8055498B681B
:1010000023F0030313438B60FFF728FA0646636857
:10101000012B0FD107E0FFF721FA801B41F2883343
:10102000984200F288804B4B9B6803F00C03042B22
:10103000F1D128E0022B0ED106E0FFF70FFA801B5A
:1010400041F28833984278D8424B9B6803F00C03F6
:10105000082BF2D117E0032B10D13E4B9B68FFF712
:10106000FDF9801B41F288339842F6D967E0FFF71B
:10107000F5F9801B41F28833984262D8354B9B6862
:1010800013F00C0FF3D1324B1B6803F00F03AB428C
:1010900007D9EAB22E4B1A701B6803F00F03AB425C
:1010A00051D1236813F0040F19D0E36883B1B3F56D
:1010B000805F0DD0B3F5A05F0AD0B3F5C05F07D055
:1010C000B3F5E05F04D0214840F2B52100F0C4FD43
:1010D00020498B6823F4E052E36813438B60236854
:1010E00013F0080F1AD0236983B1B3F5805F0DD0D8
:1010F000B3F5A05F0AD0B3F5C05F07D0B3F5E05FEA
:1011000004D012484FF42F7100F0A6FD114A9368E5
:1011100023F46043216943EAC10393600F20FFF782
:1011200067F9002070BD012070BD012070BD012055
:1011300070BD012070BD032070BD032070BD032071
:1011400070BD032070BD012070BD00BFBC2B000826
:10115000003C024000380240214B9B6803F00C0326
:10116000042B3AD0082B01D01E4870471C4B5868FE
:1011700000F03F005B6813F4800F0FD01A4BB3FBF5
:10118000F0F3174A506847F6C072104092FAA2F284
:10119000B2FA82F2D04000FB03F30EE0114BB3FB36
:1011A000F0F30F4A506847F6C072104092FAA2F26C
:1011B000B2FA82F2D04000FB03F3094A506800F40F
:1011C00040304FF4403292FAA2F2B2FA82F2D040AA
:1011D00001304000B3FBF0F070470348704700BF98
:1011E000003802400024F400001BB70008B5FFF7E8
:1011F000B3FF084B9B6803F0F003F02292FAA2F2CF
:10120000B2FA82F2D340044AD35CD840034B186050
:1012100008BD00BF00380240AC2B00080C000020C5
:1012200008B5FFF7E3FF074B9B6803F4E0534FF467
:10123000E05292FAA2F2B2FA82F2D340024AD35CAE
:10124000D84008BD00380240AC2B000808B5FFF7B5
:10125000CDFF074B9B6803F460434FF4604292FA62
:10126000A2F2B2FA82F2D340024AD35CD84008BD5F
:1012700000380240AC2B0008F8B505460F4616466C
:101280001C4636E0B4F1FF3F33D02CB1FFF7E6F84F
:10129000069BC01AA0422CD32A68536823F0E003AF
:1012A00053606B68B3F5827F0BD1AB68B3F5004F29
:1012B00002D0B3F5806F04D12A68136823F040038D
:1012C0001360AB6AB3F5005F0BD12A68136823F48F
:1012D00000531B041B0C13602A68136843F400536B
:1012E0001360012385F85130002385F85030032026
:1012F000F8BD2B689B683B40B342C3D10020F8BDCA
:1013000010B582B004460B46009280210022FFF700
:10131000B3FF034620B1636D43F0200363650323ED
:10132000184602B010BD00BF704700BF002800F093
:10133000D58010B504460368694A93420CD0A2F5E3
:101340007842934208D002F58062934204D0654807
:101350004FF4867100F080FC63683BB1B3F5827F87
:1013600004D0604840F20D1100F076FCA36853B140
:10137000B3F5806F07D0B3F5004F04D059484FF450
:10138000877100F069FCE368B3F5006F05D023B105
:10139000544840F20F1100F05FFCA369B3F5007FE1
:1013A00008D03BB1B3F5802F04D04E484FF488717C
:1013B00000F052FCE36993B1082B10D0102B0ED033
:1013C000182B0CD0202B0AD0282B08D0302B06D07D
:1013D000382B04D0434840F2111100F03DFC236A41
:1013E00033B1802B04D03F484FF4897100F034FCB6
:1013F000636A33B1102B04D03A4840F2131100F065
:101400002BFC636A83B9236933B1022B04D03548BE
:101410004FF48B7100F020FC6369012B04D9314833
:1014200040F2171100F018FCA36A3BB1B3F5005F5E
:1014300004D02C484FF48D7100F00EFCA36AB3F574
:10144000005F0AD1E36A013B4FF6FE72934204D972
:10145000244840F21D1100F0FFFB94F8513013F0C6
:10146000FF0F05D1002384F850302046FFF75CFFC2
:10147000022384F851302268136823F0400313607C
:1014800021686268A3681A43E3681A4323691A4310
:1014900063691A43A36903F400731343E2691343B6
:1014A000226A1343A26A1A430A602168638B03F01D
:1014B0000402636A13434B60A36AB3F5005F02D171
:1014C0002368E26A1A612268D36923F40063D36156
:1014D00000206065012384F8513010BD0120704761
:1014E00000300140EC2B00082DE9F04385B00446A4
:1014F0000D46174698460C9E0023ADF80E308368C3
:1015000023B18F484FF44A7100F0A6FB94F8503095
:10151000012B00F01081012384F85030FEF79EFF6C
:10152000814694F85130DBB2012B0ED06368B3F5DD
:10153000827F40F0E980A368002B40F0E78094F8B8
:101540005130DBB2042B40F0E380002D00F0E2804C
:10155000002F00F0E180B8F1000F00F0DF8094F878
:101560005130DBB2012B02D1052384F85130002326
:101570006365A763A4F83E80A4F83C802563A4F8C3
:101580003680A4F8348023646364A36AB3F5005FF3
:101590000BD12268136823F400531B041B0C136047
:1015A0002268136843F40053136023681A6812F02A
:1015B000400F03D11A6842F040021A60E368B3F5A5
:1015C000006F66D12CE0ABB123689A6812F0020F6D
:1015D00010D035F8022BDA60E38E013B9BB2E38634
:1015E00043B9A36AB3F5005F04D12268136843F4DA
:1015F00080531360E38F53B123689A6812F0010F90
:1016000005D0DB6827F8023BE38F013BE387B6F1A7
:10161000FF3F05D0FEF722FFC9EB0000B0427FD2AA
:10162000E38E002BCFD1E28F002ACCD137E0D3B1AB
:1016300023689A6812F0020F15D0691C2A781A7371
:10164000E38E013B9BB2E38653B9A36AB3F5005F17
:1016500008D12268136843F4805313600D4602E0FA
:101660000D4600E00D46E38F53B123689A6812F0EF
:10167000010F05D0DB683B70E38F013BE387013747
:10168000B6F1FF3F05D0FEF7E9FEC9EB0000B0421E
:1016900048D2E38E002BCAD1E28F002AC7D1A36AB9
:1016A000B3F5005F15D1CDF80090204601210A4620
:1016B0003346FFF7E1FD28B1636D43F00203636534
:1016C000032530E02368DB689BB2ADF80E30BDF82F
:1016D0000E3023689A6812F0100F08D0626D42F045
:1016E000020262654FF6EF729A60012500E0002564
:1016F000204631464A46FFF703FEA0B1636D43F032
:101700002003636501250EE002250CE002250AE0B6
:10171000022508E0012506E0012504E0012502E09C
:10172000032500E00325012384F85130002384F8C9
:101730005030284600E0022005B0BDE8F08300BF2D
:10174000EC2B00082DE9F84304464268AE4B9A4260
:1017500004D9AE4840F2DD6100F07EFAE3683BB1A7
:10176000B3F5005F04D0A94840F2DE6100F074FADE
:10177000236953B1B3F5806F07D0B3F5C06F04D0C0
:10178000A24840F2DF6100F067FA63694FF6F37236
:10179000134200D123B99D484FF4DC6100F05CFA9C
:1017A0002268136923F44053E1680B4313612068F6
:1017B000C36823F4164323F00C03A1682269114384
:1017C00062691143E2690A431343C36022685369A3
:1017D00023F44073A1690B435361E369B3F5004FF0
:1017E00040F0B580266803F1804303F510439E4224
:1017F00003D003F580639E4254D1FFF727FD00EB31
:10180000800000EB800065686D00B0FBF5F5804F4F
:10181000A7FB05356D092D01FFF718FD00EB8000D2
:1018200000EB800063685B00B0FBF3F8FFF70EFD90
:1018300000EB800000EB800063685B00B0FBF3F31B
:10184000A7FB03235B094FF0640909FB1383DB004B
:101850003233A7FB03231B0903F4F8731D44FFF77E
:10186000F5FC00EB800000EB800063685B00B0FBE0
:10187000F3F8FFF7EBFC00EB800000EB80006368FF
:101880005B00B0FBF3F3A7FB03235B0909FB1383A6
:10189000DB003233A7FB0323C3F342131D44B560BF
:1018A000BDE8F883FFF7BCFC00EB800000EB800094
:1018B00065686D00B0FBF5F5554FA7FB05356D0963
:1018C0002D01FFF7ADFC00EB800000EB80006368AA
:1018D0005B00B0FBF3F8FFF7A3FC00EB800000EB2C
:1018E000800063685B00B0FBF3F3A7FB03235B0995
:1018F0004FF0640909FB1383DB003233A7FB03239A
:101900001B0903F4F8731D44FFF78AFC00EB800009
:1019100000EB800063685B00B0FBF3F8FFF780FC2E
:1019200000EB800000EB800063685B00B0FBF3F32A
:10193000A7FB03235B0909FB1383DB003233A7FBFF
:101940000323C3F342131D44B560BDE8F883266842
:10195000304B9E4203D003F580639E425CD1FFF77B
:1019600075FC00EB800000EB80006568AD00B0FB0B
:10197000F5F5274FA7FB05356D092D01FFF766FC2F
:1019800000EB800000EB800063689B00B0FBF3F885
:10199000FFF75CFC00EB800000EB800063689B00BD
:1019A000B0FBF3F3A7FB03235B094FF0640909FBCA
:1019B00013831B013233A7FB03235B0903F0F003FE
:1019C0001D44FFF743FC00EB800000EB80006368E0
:1019D0009B00B0FBF3F8FFF739FC00EB800000EB55
:1019E000800063689B00B0FBF3F3A7FB03235B0954
:1019F00009FB13831B013233A7FB0323C3F34313F8
:101A00001D44B560BDE8F883A037A0001C2C000879
:101A10001F85EB5100100140FFF702FC00EB800036
:101A200000EB80006568AD00B0FBF5F5254FA7FB26
:101A300005356D092D01FFF7F3FB00EB800000EB8E
:101A4000800063689B00B0FBF3F8FFF7E9FB00EB55
:101A5000800000EB800063689B00B0FBF3F3A7FB02
:101A600003235B094FF0640909FB13831B01323325
:101A7000A7FB03235B0903F0F0031D44FFF7D0FB32
:101A800000EB800000EB800063689B00B0FBF3F884
:101A9000FFF7C6FB00EB800000EB800063689B0053
:101AA000B0FBF3F3A7FB03235B0909FB13831B01C3
:101AB0003233A7FB0323C3F343131D44B560BDE8D2
:101AC000F88300BF1F85EB51704700BF002800F06E
:101AD000868010B5044683691BB30368414A93426C
:101AE0000FD0A2F54C4293420BD002F58062934294
:101AF00007D002F54C42934203D03B48FB2100F053
:101B0000ABF8A36953B3B3F5807F27D0B3F5007F5B
:101B100024D0B3F5407F21D03348FC2100F09CF85D
:101B20001CE003682F4A934218D0A2F54C4293421E
:101B300014D002F58062934210D002F58062934285
:101B40000CD002F58062934208D002F544429342E1
:101B500004D025484FF4807100F07EF8A3683BB1B3
:101B6000B3F5805F04D020484FF4817100F074F821
:101B7000E3693BB1B3F5004F04D01B4840F20311B9
:101B800000F06AF894F8393013F0FF0F05D1002304
:101B900084F838302046FFF797FF242384F8393043
:101BA0002268D36823F40053D3602046FFF7CAFDB0
:101BB0002268136923F4904313612268536923F068
:101BC0002A0353612268D36843F40053D360002092
:101BD000E063202384F8393084F83A3010BD0120C6
:101BE000704700BF001001401C2C0008FEE700BF3A
:101BF00008B5034800F056F80120FFF7F7FF00BFD3
:101C00004C2C000808B50D4B1B6813B90C4A0B4B44
:101C10001A600A4B1A68C31C23F0030313440949D2
:101C20008B4206D900F03EFB0C2303604FF0FF30DF
:101C300008BD02490B60104608BD00BF7C000020B3
:101C4000D402002000FC012001230360014B0B6043
:101C5000704700BF0400002008B503460A46034849
:101C6000194600F005F8FFF7C3FF00BFA02C0008DD
:101C70000FB400B583B004AB53F8042B01930848AC
:101C8000802100F047FB011E03DD054800F03EF80F
:101C90000146084603B05DF804EB04B0704700BF8E
:101CA0008400002010B5044600F002FB01462046E7
:101CB00000F02CF80248012100F028F810BD00BF08
:101CC000902D000810B400221AE04FF06043D3F8C2
:101CD000803E13F0010F06D04FF06043D3F8003E72
:101CE00013F0010F01D110460DE04FF060431B6867
:101CF000002BFAD004784FF060431C7001320130A1
:101D00008A42E2D308465DF8044B704708B5FFF7F6
:101D1000D9FF08BD08B500F085F8024B024A9A6069
:101D200008BD00BF00ED00E00000000808B500F0AD
:101D300099F808BDF8B504460D4617461E462648D4
:101D4000FFF796FF25482168FFF792FF2448616856
:101D5000FFF78EFF2348A168FFF78AFF2248E1685A
:101D6000FFF786FF21482169FFF782FF204861695C
:101D7000FFF77EFF1F48A169FFF77AFF1E48E16960
:101D8000FFF776FF1D48FFF773FF1D482946FFF751
:101D90006FFF1C4CE16A1C48FFF76AFF216B1B4870
:101DA000FFF766FFE16B1A48FFF762FF15F0800F3F
:101DB00003D018483946FFF75BFF15F4004F03D0F6
:101DC00015483146FFF754FF1448FFF751FF1448F8
:101DD0000699FFF74DFFF8BDF82C0008082D000804
:101DE000182D0008282D0008382D0008482D00085F
:101DF000582D0008682D0008782D0008882D00084F
:101E0000942D000800ED00E0A42D0008B42D00087A
:101E1000C42D0008D42D0008E42D0008F42D00087E
:101E2000FC2D00080C4B1A6842F001021A600021D8
:101E300099601A6822F0847222F480321A60074A8C
:101E40005A601A6822F480221A60D9604FF000624A
:101E5000034B9A60704700BF0038024010300024E6
:101E600000ED00E0224B9B6803F00C03042B07D02D
:101E7000082B09D0002B2DD11E4A1F4B1A602CE0D5
:101E80001E4A1D4B1A6028E0194B5A685B6803F024
:101E90003F0312F4800F09D0184AB2FBF3F2144B3F
:101EA0005B68C3F3881303FB02F208E0114AB2FB3C
:101EB000F3F30F4A5168C1F3881101FB03F20C4B95
:101EC0005B68C3F3014301335B00B2FBF3F30A4ADF
:101ED000136002E0074A084B1A60054B9B68C3F386
:101EE0000313074AD15C044A1368CB401360704760
:101EF000003802400024F4000C000020001BB70052
:101F0000402E000870B594B000240194294B1A6C3F
:101F100042F080521A641B6C03F080530193019BC2
:101F20000294254B1A6842F480421A601B6803F43D
:101F300080430293029B01230893099302260E9685
:101F40004FF480030F9308231093C023119312962C
:101F50000425139508A8FEF7C5FD0F2303930496E7
:101F600005944FF4A05306934FF48053079303A8AE
:101F70002946FEF7DBFFFFF739F9104BA3FB0030D2
:101F80008009FEF7D7FA2846FEF7EAFA4FF0FF304D
:101F900021462246FEF78CFAFEF766FA41F201036B
:101FA000984204D1064A136843F48073136014B056
:101FB00070BD00BF0038024000700040D34D621079
:101FC000003C024008B5FEF727FAFFF79BFFFFF73A
:101FD00049FF08BD70B58CB000240194334B1A6BD7
:101FE00042F080021A631A6B02F080020192019A99
:101FF00002941A6B42F001021A631A6B02F001029A
:102000000292029A03941A6B42F010021A631A6B3E
:1020100002F010020392039A04941A6B42F0020237
:102020001A631A6B02F002020492049A05941A6B66
:1020300042F004021A631A6B02F004020592059A38
:1020400006941A6B42F008021A631B6B03F0080334
:102050000693069B48F220030793012508950994EF
:102060000A94134E304607A9FEF796FA304620210F
:102070002246FEF727FC30464FF400412A46FEF781
:1020800021FC4FF400460796089509940A9404F140
:10209000804404F50434204607A9FEF77DFA204663
:1020A00031462A46FEF70EFC0CB070BD00380240E7
:1020B0000000024008B50948094B0360094B436022
:1020C00000238360C3604FF48042026143618361F7
:1020D000C3610362FEF712FC08BD00BFAC01002023
:1020E00000540040A086010008B50C480C4B03606A
:1020F0004FF48273436000238360C36003614361D4
:102100004FF4007282613822C261036243628362CB
:102110000A23C362FFF70AF908BD00BF540200207A
:102120000030014008B50C480C4B03604FF482733B
:10213000436000238360C360036143614FF4007216
:1021400082613022C2610362436283620A23C362F6
:10215000FFF7ECF808BD00BF140100200038004074
:1021600008B50848084B03604FF4E133436000238F
:102170008360C36003610C2242618361C361FFF726
:10218000A5FC08BDF00100200050004008B508483B
:10219000084B03604FF4E133436000238360C36066
:1021A00003610C2242618361C361FFF78FFC08BDAC
:1021B0006C0100200048004070B582B0114DAF2383
:1021C0002B706870A970104C002222706270A2708F
:1021D000E2700E4E30464FF40041FEF773FB41F2C1
:1021E000883300930A48294622460323FFF77CF9E7
:1021F00030464FF400410122FEF764FBA07802B0A4
:1022000070BD00BFAC020020300200200000024080
:102210005402002070B582B0114DAF232B7068704E
:10222000A970104C002222706270A270E2700E4EF3
:1022300030464FF40041FEF745FB41F288330093EE
:102240000A48294622460323FFF74EF930464FF449
:1022500000410122FEF736FBA07802B070BD00BF3E
:10226000AC020020300200200010024014010020C7
:1022700008B5FFF7A7FEFFF7ADFEFFF71BFFFFF75F
:1022800033FFFFF74FFFFFF76BFFFFF77FFF8F2055
:102290000021FFF791FF8F200021FFF7BBFFFEE732
:1022A000704700BF014B1868704700BF70000020E6
:1022B000034613F8012B002AFBD1181A0138704786
:1022C00030B5141E9BB0054604DA8B2303604FF033
:1022D000FF301CE04FF40272ADF80C2014BF04F183
:1022E000FF322246029205924FF6FF72009104914E
:1022F000ADF80E2069461A461E9B00F075F8431C87
:10230000BCBF8B232B6014B1009B00221A701BB042
:1023100030BD000073B50093054B06460D461446CC
:10232000186831462A462346FFF7CAFF02B070BD3F
:10233000700000202DE9F0478E68B34282460C46BB
:102340009046994640D38A8912F4906F3AD0256816
:1023500009696F1A6569022305EB450595FBF3F5DD
:102360007B1C4B449D4238BF1D4653050FD5294663
:1023700000F03CFB064698B121693A4600F0CBFAE2
:10238000A38923F4906343F08003A38113E02A46DA
:1023900000F082FB064670B95046216900F0E2FA6F
:1023A0000C23CAF80030A38943F04003A3814FF007
:1023B000FF30BDE8F087266165613E44ED1B266075
:1023C000A5604E46B14500D24E4632462068414691
:1023D00000F0ACFAA3689B1BA36023681E44266030
:1023E0000020BDE8F08700002DE9F0439DB00646CF
:1023F00003938B891C060D4690460CD50B6953B987
:10240000402100F0F3FA2860286110B90C233360F2
:10241000CCE040236B610023099320238DF8293001
:1024200030238DF82A3043461C4613F8012B1AB985
:10243000B4EB08090FD002E0252AF5D1F8E73046C1
:10244000294642464B46FFF775FF013000F0A98050
:10245000099B4B4409932378002B00F0A2800023B2
:102460004FF0FF3204930793059206938DF8533093
:102470001A9304F101084446DFF848912178484650
:10248000052200F039FA08F10108049B30B1C9EBCC
:1024900000000122824013430493ECE7D80644BFB6
:1024A00020228DF85320190744BF2B228DF853208A
:1024B00022782A2A02D0079923460EE0039A111D9A
:1024C00012680391002ABBBF524243F002030792F5
:1024D0000792B8BF049301340AE01C460133227806
:1024E000303A092A03D80A2000FB0121F5E70791B9
:1024F00023782E2B1AD163782A2B0AD1039B1A1D1D
:102500001B680392002BB8BF4FF0FF3302340593D2
:102510000CE0611C00220C4601312378303B092B72
:1025200003D80A2000FB0232F5E70592DFF8988015
:1025300021784046032200F0DFF938B1049AC8EB55
:1025400000004023834013430493013421781A4848
:102550008DF82810062204F1010800F0CDF988B1A9
:10256000164B33B9039B073323F007030833039358
:1025700013E003AB0093304604A92A46104BAFF397
:10258000008007E003AB0093304604A92A460C4BB9
:1025900000F092F8421C074603D0099B3B44099384
:1025A00041E7AB895B0601D4099801E04FF0FF30A9
:1025B0001DB0BDE8F08300BF5C2E000800000000E5
:1025C00035230008522E0008582E00082DE9F84344
:1025D00091461F468A680B69DDF820809342B8BF98
:1025E0001346C9F8003091F8432006460C4612B154
:1025F0000133C9F800302368990642BFD9F800308A
:102600000233C9F80030256815F006051CD094F88F
:1026100043302268003318BF012392061FD5E1180A
:102620005A1C302081F84300224494F8451082F867
:102630004310023313E03046394604F119020123F6
:10264000C047013007D00135E368D9F800209B1A54
:102650009D42F0DBDBE74FF0FF30BDE8F88330460A
:10266000394604F14302C0470130F4D02268D9F85A
:102670000050E36802F00602042A08BF5D1B2269CD
:10268000A3680CBF25EAE57500259342C4BF9B1AD9
:10269000ED184FF00009A9450ADA3046394604F131
:1026A0001A020123C0470130D5D009F10109F2E730
:1026B0000020BDE8F88300002DE9FF410C461746D5
:1026C000227E6E2A984606460A9B01F1430100F0DD
:1026D000AF8012D8632A23D00AD8002A00F0BC8029
:1026E000582A40F0CB8084F84520DFF804E257E018
:1026F000642A1ED0692A1CD0C0E0732A00F0B08082
:1027000009D86F2A2ED0702A40F0B880226842F093
:10271000200222603FE0752A24D0782A3BD0ADE029
:102720001A68111D1960136884F8423004F14205DB
:10273000A8E020681A6810F0800F02D0101D186001
:1027400008E010F0400F02F10400186002D0B2F966
:10275000003000E01368002B3EDA2D225B4284F843
:10276000432039E020681A6810F0800F02D0101D55
:10277000186007E010F0400F02F10400186001D06B
:10278000138800E01368227EDFF864E16F2A0CBF33
:1027900008220A221CE07822DFF858E184F845205C
:1027A0002268186812F0800F00F104051D6003D143
:1027B000550601D5038800E00368D00744BF42F006
:1027C000200222601BB9226822F02002226010221F
:1027D000002084F8430002E0DFF814E10A22656873
:1027E000A560002DA2BF206820F00400206003B97E
:1027F00065B10D46B3FBF2F002FB10331EF8033057
:1028000005F8013D03460028F4D100E00D46082AF2
:102810000BD12368DA0708D5236962689A42DEBFC4
:10282000302305F8013C05F1FF35491B21612EE0FD
:1028300025681A68606915F0800F03D0151D1D60AA
:10284000136808E015F0400F02F104051D601368DD
:1028500001D0188000E01860002323610D4616E0C7
:102860001A68111D1960156862682846002100F079
:1028700043F808B1401B6060636804E004F142055E
:1028800084F8422001232361002384F84330CDF8EB
:1028900000803046214603AA3B46FFF797FE0130F1
:1028A00002D14FF0FF301FE0304639462A462369F7
:1028B000C0470130F5D023689B0705D4E068039B2F
:1028C0009842B8BF18460FE00025E368039A9B1AA8
:1028D0009D42F3DA3046394604F119020123C0471C
:1028E0000130DED00135F0E704B0BDE8F08100BF73
:1028F000632E0008742E000810B5C9B2024490423D
:10290000034606D01C788C4200F10100F7D118462E
:1029100010BD002010BD10B5431E0A44914204D0E2
:1029200011F8014B03F8014FF8E710BD814210B5D3
:1029300001EB020301D3421E0BE09842FBD2811847
:10294000D21AD34204D013F8014D01F8014DF8E733
:1029500010BD994204D011F8014B02F8014FF8E77D
:1029600010BD000030B500293DD051F8042C0B1FDC
:102970001D49002AB8BF9B180A680C4612B95A6054
:102980000B6030BD93420DD219685818904201BFB8
:102990005A5852181A6042685A60236030BD9942F2
:1029A00003D80A4651680029F9D1146815199D42C7
:1029B0000AD11B682344D0188842136013D10868D9
:1029C000034413604B680DE002D90C23036030BD53
:1029D0001C681819884204BF08684968596004BF18
:1029E00000191860536030BD0801002070B5CC1C80
:1029F00024F0030408340C2C38BF0C24002C0646A9
:102A000003DA0C233360002070BD8C42F9D3204AD6
:102A1000136810461946A1B10A68121B0ED40B2A7E
:102A200003D90A608B188C501FE08B420DBF5A6887
:102A30004A685A60026018BF0B4616E00B464968A8
:102A4000E9E7144D2B681BB9304600F04BF82860BD
:102A50003046214600F046F8421C0346D1D0C51C42
:102A600025F0030585420AD11C6003F10B001A1DF5
:102A700020F00700821A0AD05142995070BD3046AA
:102A8000E91A00F02FF80130BBD02B46ECE770BDFF
:102A90000801002004010020F8B5074615460E463F
:102AA00021B91146BDE8F840FFF7A0BF1AB9FFF7FA
:102AB00059FF2846F8BD00F025F8A8420ED2384646
:102AC0002946FFF793FF044650B131462A46FFF7E7
:102AD00022FF38463146FFF745FF01E03046F8BD9A
:102AE0002046F8BD38B5064C00230546084623604D
:102AF000FFF788F8431C02D1236803B12B6038BD6F
:102B00001001002051F8040C0028BEBF091851F82C
:102B1000043CC018043870472E2E2F7379737465E7
:102B20006D2F7372632F73746D333266342D686149
:102B30006C2F73746D3332663478785F68616C5FC4
:102B4000636F727465782E63000000002E2E2F7361
:102B5000797374656D2F7372632F73746D3332667E
:102B6000342D68616C2F73746D3332663478785FFE
:102B700068616C5F6770696F2E6300002E2E2F7383
:102B8000797374656D2F7372632F73746D3332664E
:102B9000342D68616C2F73746D3332663478785FCE
:102BA00068616C5F6932632E630000000000000002
:102BB0000102030401020304060708092E2E2F73E5
:102BC000797374656D2F7372632F73746D3332660E
:102BD000342D68616C2F73746D3332663478785F8E
:102BE00068616C5F7263632E630000002E2E2F738A
:102BF000797374656D2F7372632F73746D333266DE
:102C0000342D68616C2F73746D3332663478785F5D
:102C100068616C5F7370692E630000002E2E2F7345
:102C2000797374656D2F7372632F73746D333266AD
:102C3000342D68616C2F73746D3332663478785F2D
:102C400068616C5F756172742E63000061626F72FF
:102C50007428292C2065786974696E672E2E2E00E1
:102C60002C2066756E6374696F6E3A200000000058
:102C7000617373657274696F6E20222573222066FA
:102C800061696C65643A2066696C6520222573224F
:102C90002C206C696E65202564257325730A00005D
:102CA0006173736572745F706172616D282920664B
:102CB00061696C65643A2066696C6520222573221F
:102CC0002C206C696E652025640A00006D61696EB8
:102CD00028617267633D25642C20617267763D5BD5
:102CE000000000002C2000002225732200000000BC
:102CF0005D293B0A00000000537461636B2066721B
:102D0000616D653A0A000000205230203D202025E8
:102D10003038580A00000000205231203D20202584
:102D20003038580A00000000205232203D20202573
:102D30003038580A00000000205233203D20202562
:102D40003038580A0000000020523132203D202542
:102D50003038580A00000000204C52203D20202529
:102D60003038580A00000000205043203D20202524
:102D70003038580A0000000020505352203D2025D2
:102D80003038580A000000004653522F4641523A4C
:102D90000A0000002043465352203D2020253038B1
:102DA000580A00002048465352203D202025303844
:102DB000580A00002044465352203D202025303838
:102DC000580A00002041465352203D20202530382B
:102DD000580A0000204D4D464152203D20253038F4
:102DE000580A00002042464152203D20202530381C
:102DF000580A00004D6973630A000000204C522FEE
:102E00004558435F52455455524E3D202530385861
:102E10000A0000005B486172644661756C745D0A6B
:102E2000000000005B4275734661756C745D0A00BA
:102E30005B55736167654661756C745D0A000000DF
:102E4000000000000000000001020304060708095A
:102E50004300232D302B2000686C4C0065666745CD
:102E60004647003031323334353637383941424302
:102E700044454600303132333435363738396162B3
:052E80006364656600BB
:102E88007856341280000020000000000024F4006E
:102E9800000000000000000000000000000000002A
:102EA800000000000000000000000000000000001A
:102EB800502E000800000000000000000000000084
:102EC80000000000000000000000000000000000FA
:102ED80000000000000000000000000000000000EA
:102EE80000000000000000000000000000000000DA
:082EF80010000020325476980E
:040000050800018965
:00000001FF
