:020000040800F2
:10000000000002205D02000861020008630200088F
:10001000790200087B02000891020008000000003D
:10002000000000000000000000000000A70200081F
:10003000A902000800000000AB020008C30200088B
:10004000C1020008C1020008C1020008C102000884
:10005000C1020008C1020008C1020008C102000874
:10006000C1020008C1020008C1020008C102000864
:10007000C1020008C1020008C1020008C102000854
:10008000C1020008C1020008C1020008C102000844
:10009000C1020008C1020008C1020008C102000834
:1000A000C1020008C1020008C1020008C102000824
:1000B000C1020008C1020008C1020008C102000814
:1000C000C1020008C1020008C1020008C102000804
:1000D000C1020008C1020008C1020008C1020008F4
:1000E000C1020008C1020008C1020008C1020008E4
:1000F000C1020008C1020008C1020008C1020008D4
:10010000C1020008C1020008C1020008C1020008C3
:10011000C1020008C1020008C1020008C1020008B3
:10012000C1020008C1020008C1020008C1020008A3
:10013000C1020008C1020008C1020008C102000893
:10014000C1020008C1020008C1020008C102000883
:10015000C1020008C1020008C1020008C102000873
:10016000C1020008C1020008C1020008C102000863
:10017000C1020008C1020008C1020008000000001E
:10018000C1020008C102000807B501F033F8294B8D
:10019000294A93420BD293E806000C3353F8040C1F
:1001A0009042F5D951F8044B42F8044BF8E7234B41
:1001B000234A934209D253F8082B53F8041C8A426D
:1001C000F6D2002042F8040BF9E701F01FF8684668
:1001D00001A901F007F81B4C1B4BE41AA4100025E1
:1001E0001E46A54204DA56F8253098470135F8E74F
:1001F000164B174CE41AA41000251E46A54204DA3B
:1002000056F8253098470135F8E79DE8030001F0DE
:10021000D3F8104C104BE41A0646A4101D46002CCF
:1002200004DD013C55F824309847F8E7304600F0EB
:10023000D6FF00BFC8020008E0020008E002000884
:10024000F0020008F0020008F0020008F0020008C6
:10025000F0020008F0020008F0020008144800470D
:10026000FEE71EF0040F0CBFEFF30880EFF30980E8
:100270007146104A1047FEE7FEE71EF0040F0CBF60
:10028000EFF30880EFF3098071460B4A1047FEE751
:100290001EF0040F0CBFEFF30880EFF309807146E6
:1002A000064A1047FEE7FEE7FEE7FEE7704700005C
:1002B00089010008770200088F020008A5020008E3
:0602C000FEE700F041B86A
:1002C800F4150008000000200C000020F4150008B8
:1002D80000000010000000100C000020D0010020D9
:0802E8000000001000000010EE
:1002F00010B5044600F042FC4FF47A73B0FBF3F003
:1003000000F078F84FF0FF302146002200F042F86C
:10031000002010BD08B50B4B1A6842F400721A6039
:100320001A6842F480621A601A6842F480721A6095
:10033000032000F01DF80F20FFF7DAFF01F048F965
:10034000002008BD003C0240024A136801331360DC
:10035000704700BF10000020014B1868704700BFB5
:1003600010000020014B1868000C7047002004E0CA
:10037000074AD36823F4E0631B041B0C43F0BF63FC
:1003800043F4003300F0070043EA0023D3607047D2
:1003900000ED00E0154BDB68C3F3022370B5C3F139
:1003A00007051C1D042D28BF0425062C8CBF033B0C
:1003B0000023012404FA03F6AC40013C013E214035
:1003C00099403240002842EA01024FEA0212AFBFD0
:1003D00000F1604000F00F00054BD2B2A5BF00F560
:1003E0006140D2B21A5480F8002370BD00ED00E0E5
:1003F00014ED00E00138B0F1807F3FBF064B074AA3
:100400005860F0213FBF82F8231000200722986037
:1004100034BF1A600120704710E000E000ED00E0FA
:10042000044B1A6804280CBF42F0040222F00402B4
:100430001A60704710E000E02DE9F3410F680022D8
:100440000123934003EA07059D4240F0D2804C68A7
:1004500024F0100CBCF1020F14D14FEAD20E00EBC5
:100460008E0E02F00706DEF82030B6004FF00F08BF
:1004700008FA06F823EA08080B69B34048EA0303C0
:10048000CEF820304FEA420E0323066803FA0EF33B
:10049000DB4303EA060804F0030606FA0EF60CF145
:1004A000FF3C48EA0606BCF1010F066011D88668D9
:1004B00003EA060CCE6806FA0EF64CEA06068660DB
:1004C000466826EA050CC4F3001696404CEA060678
:1004D0004660C66803EA060C8B6803FA0EF64CEA1F
:1004E0000603C360E30040F18480454E002301937E
:1004F000D6F844E04EF4804EC6F844E0766C06F43C
:1005000080460196019E22F0030606F1804606F51C
:100510009C3602F0030CD6F808804FEA8C0C4FF0A2
:100520000F0E0EFA0CFE28EA0E0EDFF8DC804045B6
:1005300031D003F1804303F5013398421ED003F517
:10054000806398421CD003F5806398421AD003F56B
:100550008063984218D003F58063984216D003F563
:100560008063984214D003F58063984212D003F55B
:10057000806398420CBF082309230CE001230AE0A2
:10058000022308E0032306E0042304E0052302E03D
:10059000062300E0072303FA0CF343EA0E03DFF817
:1005A00064E0B360DEF80030EE4314F4803F14BF23
:1005B0002B433340CEF80030DEF80430DFF844E05F
:1005C00014F4003F14BF2B433340CEF80430DEF860
:1005D000083014F4801F14BF2B433340CEF808308A
:1005E000DEF80C30A40254BF06EA03051D43054B98
:1005F000DD600132102A7FF423AF02B0BDE8F08144
:1006000000380240003C01400000024002B90904E9
:10061000816170477047000070B50446002863D0C0
:1006200090F83D3003F0FF021BB980F83C20FFF743
:10063000F1FF22682D4D242384F83D30136823F008
:100640000103136000F0B4FA636822682849B0FB24
:10065000F1F1AB422E4688BF4FF49675516082BFD0
:1006600069434FF47A75B1FBF5F1B34201F1010131
:10067000116208D85B00B0FBF3F0C0F30B03032B4F
:1006800098BF042016E0A16849B903EB4303B0FB0F
:10069000F3F0C0F30B0363B140F400400AE019210A
:1006A0004B43B0FBF3F0C0F30B0313B140F44040F5
:1006B00000E00120216AE369D0610B431360E16827
:1006C00023690B439360A16963690B43D36013688B
:1006D00043F00103136000202023206484F83D30A0
:1006E000206384F83E0070BD012070BDA08601002B
:1006F00040420F000368F7B5D907044603D42368C6
:100700009A0737D484E0A54B9A6802F00C02042AB9
:1007100007D09A6802F00C02082A0BD15B685B02D2
:1007200008D59E4B1B689F03E9D56368002BE6D173
:10073000012030E19A4B22791A7063686BB1FFF7A0
:100740000BFE0546954B1B689E03D8D4FFF704FEAD
:10075000401B6428F6D903201DE1FFF7FDFD054687
:100760008E4B1B689803CAD5FFF7F6FD401B642823
:10077000F6D9F0E7894B9A6812F00C0F07D09A6807
:1007800002F00C02082A16D15B68590213D4834B7D
:100790001A68920702D5E268012AC9D11968F820BF
:1007A00090FAA0F02269B0FA80F021F0F8018240BE
:1007B0000A431A602CE0E2687A4BDAB101221A602F
:1007C000FFF7CAFD0546754803689F0705D4FFF784
:1007D000C3FD401B0228F6D9BDE70268F82191FA53
:1007E000A1F12369B1FA81F122F0F8028B401343A1
:1007F00003600DE01A60FFF7AFFD0546674B1B680D
:100800009E0705D5FFF7A8FD401B0228F6D9A2E7F1
:100810002368180703D42368590744D51FE0626989
:10082000614B72B101221A60FFF796FD05465B4BE2
:100830005B6F9A07EFD4FFF78FFD401B0228F6D9B4
:1008400089E71A60FFF788FD0546544B5B6F9B07ED
:10085000E1D5FFF781FD401B0228F6D97BE7002395
:1008600001934E4B1A6C42F080521A641B6C4F4A33
:1008700003F080530193019B136843F4807313606A
:10088000FFF76AFD0546494B1B68DF050ED5484B4F
:10089000227A1A70A368BBB1FFF75EFD05463F4B95
:1008A0001B6F9E0708D5A269EAB959E0FFF754FD0E
:1008B000401B0228E7D94EE7FFF74EFD41F288338F
:1008C000401B9842EBD946E7FFF746FD0546334B00
:1008D0001B6F9807E7D5FFF73FFD41F28833401BB8
:1008E0009842F4D937E72D4B9B6803F00C03082B93
:1008F0003FF41EAF2F4D0023022A2B603ED1FFF79D
:100900002BFD06462548036899012BD447F6C0778E
:1009100097FAA7F74FF44036B7FA87F796FAA6F694
:100920004FF07061B6FA86F691FAA1F1E369226A96
:10093000B1FA81F11A43636ABB401A43A36A5B08A8
:10094000013BB3401343E26A8A40134343600123EF
:100950002B60FFF701FD0446104B1B689A0107D579
:10096000002018E0FFF7F8FC801B0228CAD9F2E645
:10097000FFF7F2FC001B0228EED9ECE6FFF7ECFCD7
:100980000446064B1B689B01EAD5FFF7E5FC001BFC
:100990000228F6D9DFE603B0F0BD00BF0038024000
:1009A0000238024000004742800E4742007000407B
:1009B00070380240600047424E4B1A6802F00F0246
:1009C000914270B504460D460AD82168880710D5B3
:1009D0004948836823F0F002A3681343836008E06A
:1009E000CAB21A701B6803F00F038B42EDD00120CE
:1009F00070BDC90706D43F4B1A6802F00F0295423A
:100A000056D35CE063683C4A012B03D1126812F4B0
:100A1000003F08E0991E0129126802D812F0007FF9
:100A200001E012F0020FE2D033498A6822F003029B
:100A300013438B60FFF790FC6368012B06460ED1D1
:100A40002D4B9B6803F00C03042BD4D0FFF784FCE0
:100A500041F28833801B9842F2D9032070BD022BEB
:100A60000DD1254B9B6803F00C03082BC3D0FFF777
:100A700073FC41F28833801B9842F2D9EDE7032BD7
:100A800010D11D4B9B68FFF767FC41F28833801B38
:100A90009842F6D9E1E7FFF75FFC41F28833801B0B
:100AA0009842DAD8144B9B6813F00C0FF3D1A2E7ED
:100AB000EAB21A701B6803F00F03AB4297D12168AA
:100AC0004A0706D50C48836823F4E052E3681343D1
:100AD00083600B0741BF084A2169936823F4604390
:100AE00044BF43EAC10393600F20FFF701FC0020DD
:100AF00070BD00BF003C02400038024010B51C4CE5
:100B0000A36803F00C03042B2ED0082B2ED16268AF
:100B100002F03F03626847F6C07112F4800F62680A
:100B200091FAA1F147F6C07000EA020008BF114A2D
:100B3000B1FA81F120FA01F00EBFB2FBF3F20E49D7
:100B4000B1FBF3F202FB00F3094A50684FF4403264
:100B500092FAA2F200F44030B2FA82F2D0400130B0
:100B60004000B3FBF0F010BD034810BD014810BDBC
:100B7000003802400024F400001BB70008B5FFF75E
:100B8000BDFF084BF0229B6892FAA2F203F0F0033B
:100B9000B2FA82F2D340044AD35CD840034B1860C7
:100BA00008BD00BF00380240D21500080800002030
:100BB00008B5FFF7E3FF074B4FF4E0529B6892FA4A
:100BC000A2F203F4E053B2FA82F2D340024AD35CB9
:100BD000D84008BD00380240D215000808B5FFF71C
:100BE000CDFF074B4FF460429B6892FAA2F203F4E8
:100BF0006043B2FA82F2D340024AD35CD84008BDC7
:100C000000380240D21500082DE9F041069D044647
:100C1000884617461E462368986808EA0000B842CE
:100C200033D0721CF8D04EB923685A6822F0E00223
:100C30005A606268B2F5827F11D105E0FFF78CFB44
:100C4000401BB042E7D3EFE7A268B2F5004F02D0F5
:100C5000B2F5806F03D11A6822F040021A60A26ACE
:100C6000B2F5005F08D119684DF6FF720A401A60AC
:100C70001A6842F400521A60012384F851300023AC
:100C800084F850300320BDE8F0810020BDE8F081F9
:100C900013B50B460092802100220446FFF7B4FFF3
:100CA00020B1636D43F020036365032002B010BDE3
:100CB000704738B50446002839D090F8513003F019
:100CC000FF021BB980F85020FFF7F2FF6168A068AF
:100CD000A56A0843E16808432169022384F851307A
:100CE0000843236861691A680843E16922F04002F9
:100CF0000843216A1A60A2690143294302F4007083
:100D000001431960120C616A02F004020A43B5F54E
:100D1000005F5A6004BFE26A1A61DA6922F4006275
:100D2000DA6100200123606584F8513038BD01206C
:100D300038BD2DE9F04385B099460023ADF80E305B
:100D400090F850300C9F012B04460D46164600F0DB
:100D5000F680012380F85030FFF7FEFA94F8513006
:100D6000012B80460DD06368B3F5827F40F0DC80B4
:100D7000A368002B40F0D88094F85130042B40F049
:100D8000D380002D00F0D280002E00F0CF80B9F18A
:100D9000000F00F0CB8094F85130A663012B04BF04
:100DA000052384F851300023636523646364A36AD8
:100DB000A4F83E90B3F5005FA4F83C902563A4F836
:100DC0003690A4F83490236808D119684DF6FF7264
:100DD0000A401A601A6842F400521A601A685206F1
:100DE0005EBF1A6842F040021A60E368B3F5006F14
:100DF00050D1E38EE18F43B32268906880070ED50F
:100E0000013B35F8020BD0609BB2E3863BB9A36A85
:100E1000B3F5005F02BF136843F48053136059B108
:100E200023689A68D20741BFDB6826F8023BE38F4C
:100E300003F1FF3348BFE387781CDAD0FFF78CFA61
:100E4000C8EB0000B842D4D34BE00029E7D1A36A35
:100E5000B3F5005F4ED137E023689A6891072AD531
:100E60002A781A73E38E013B9BB205F10109E386F0
:100E7000A3B1E38F5BB123689A68D20741BFDB68F7
:100E80003370E38F03F1FF3344BFE38701367B1CEC
:100E900013D14D46E38E002BDED109E0A36AB3F5F2
:100EA000005FE6D12268136843F480531360E0E7E3
:100EB000E38F002BCBD0A946DBE7FFF74DFAC8EB59
:100EC0000000B842E5D30CE00121CDF800802046B7
:100ED0000A463B46FFF798FE28B1636D43F00203D4
:100EE0006365032523E02368DB689BB2ADF80E3011
:100EF000BDF80E302268956815F010051FBF636DB0
:100F000043F0020363654FF6EF7318BF936020460A
:100F10003946424618BF0125FFF7BAFE38B1636D66
:100F200043F02003636501E0022500E00125012371
:100F300084F85130002384F85030284600E0022025
:100F400005B0BDE8F08300002DE9F047066833697D
:100F5000044623F44052C3682169C0691343A26860
:100F60003361F3681143626923F416430A43024371
:100F700023F00C031343F360736923F44072A369F5
:100F8000B0F5004F43EA020373617B4B7CD19E4274
:100F900003D003F580639E4231D1FFF71FFE6368E3
:100FA00019254FEA43086843B0FBF8F8FFF716FE2F
:100FB000676868437F00B0FBF7F7FFF70FFE6368D1
:100FC0004FF064095B006843B0FBF3F0B0FBF9F04D
:100FD00009FB1077FFF702FEB8FBF9F86268FF0023
:100FE0003237B7FBF9F707F0F807684352004FEACA
:100FF00008187F00B0FBF2FAFFF7F0FD30E0FFF7D2
:10100000D7FD636819254FEA43086843B0FBF8F839
:10101000FFF7CEFD676868437F00B0FBF7F7FFF787
:10102000C7FD63684FF064095B006843B0FBF3F0F1
:10103000B0FBF9F009FB1077FFF7BAFDB8FBF9F840
:10104000FF0062683237B7FBF9F707F0F80768432B
:1010500052004FEA08187F00B0FBF2FAFFF7A8FD34
:10106000454360684000B5FBF0F0B0FBF9F009FBC8
:1010700010A2D2003232B2FBF9F303F0070343446B
:101080001F44B760BDE8F0879E4202D03B4B9E42B2
:101090002ED1FFF7A3FD676819256843BF00B0FB99
:1010A000F7F7FFF79BFD636868439B00B0FBF3F81D
:1010B000FFF794FD63684FF0640968439B00B0FB41
:1010C000F3F0B0FBF9F009FB10831B013233B3FBE3
:1010D000F9F303F0F008FFF781FDB7FBF9F7626859
:1010E000684392003F01B0FBF2FAFFF777FD2DE075
:1010F000FFF75EFD676819256843BF00B0FBF7F78F
:10110000FFF756FD636868439B00B0FBF3F8FFF7F9
:101110004FFD63684FF064099B006843B0FBF3F038
:10112000B0FBF9F009FB10831B013233B3FBF9F379
:1011300003F0F008FFF73CFDB7FBF9F7626868437E
:1011400092003F01B0FBF2FAFFF732FD45436068C1
:101150008000B5FBF0F0B0FBF9F009FB10A2120122
:101160003232B2FBF9F202F00F0208EB02033B4409
:10117000B360BDE8F08700BF0010014000140140DB
:10118000704710B5044640B390F8393003F0FF02C1
:101190001BB980F83820FFF7F3FF2268242384F876
:1011A0003930D36823F40053D3602046FFF7CCFED8
:1011B00023681A6922F490421A615A6922F02A02BD
:1011C0005A61DA6842F40052DA6000202023E063BA
:1011D00084F8393084F83A3010BD012010BD08B5CC
:1011E00000F016F801230360014B0B60704700BF4D
:1011F0000000002008B500F01DF8024B024A9A607A
:1012000008BD00BF00ED00E00000000800F032B8AB
:10121000BFF34F8F0549064BCA6802F4E0621343DF
:10122000CB60BFF34F8F00BFFDE700BF00ED00E0D4
:101230000400FA050C4B1A68002142F001021A6002
:1012400099601A6822F0847222F480321A60074A88
:101250005A601A6822F480221A60D960044B4FF059
:1012600000629A60704700BF0038024010300024CE
:1012700000ED00E0174A1849936803F00C03042BB3
:1012800003D0082B03D0154B18E0154B16E050681F
:10129000536810F4800F03F03F03506814BF104AE6
:1012A0000E4AB2FBF3F30B4A5268C2F30142C0F399
:1012B0008810013243435200B3FBF2F30B60054B3D
:1012C000084A9B68C3F30313D25C0B68D3400B60DE
:1012D000704700BF00380240080000200024F400DE
:1012E000001BB700E215000870B594B000242A4B2B
:1012F00001941A6C42F080521A641B6C03F0805304
:101300000193019B254B02941A6842F480421A60B3
:101310001B6803F480430293029B01230893099303
:101320004FF480030F93082302260425109308A886
:10133000C02311930E9612961395FFF7DBF90F2336
:1013400003934FF4A0532946069303A84FF4805308
:10135000079304960594FFF72FFBFFF70FFC4FF45C
:101360007A73B0FBF3F0FFF745F82846FFF758F81B
:10137000224621464FF0FF30FFF70CF8FEF7F2FF50
:1013800041F20103984201BF054A136843F4807398
:10139000136014B070BD00BF003802400070004000
:1013A000003C024008B5FEF7B5FFFFF79DFFBDE822
:1013B0000840FFF75FBF000080B58EB00024FFF744
:1013C000F1FF734B03941A6B7248734D42F0800225
:1013D0001A631A6B02F080020392039A04941A6B48
:1013E00042F001021A631A6B02F001020492049A9D
:1013F00005941A6B42F010021A631A6B02F0100285
:101400000592059A06941A6B42F002021A631A6B4F
:1014100002F002020692069A07941A6B42F0040246
:101420001A631A6B02F004020792079A08941A6B67
:1014300042F008021A631B6B03F008030893202193
:101440002246089BFFF7E2F852484FF40041012280
:10145000FFF7DCF8012251484FF40041FFF7D6F8BE
:10146000012648F220034B48099309A94FF400478D
:101470000A960B940C94FEF7DFFF09A947480997D9
:101480000A960B940C94FEF7D7FF4548454A464B05
:10149000846080E80C004FF480430361C4604461C1
:1014A0008461C4610462FFF7B7F8404BAC604FF44D
:1014B000827A4FF400794FF00A0885E8080428463C
:1014C0003023C5F81890EB61C5F82C80EC602C61D6
:1014D0006C612C626C62AC62FFF7EBFB3448354BFD
:1014E000C0F8189080E808042823C361C0F82C8055
:1014F0008460C46004614461046244628462FFF7F2
:10150000D8FB2D482D4B84604FF4E1394FF00C0887
:1015100080E80802C0F81480C46004618461C4617A
:10152000FFF72FFE2648274BC0F8148080E80802FA
:10153000DFF89490DFF894808460C4600461846173
:10154000C461FFF71EFEAF2389F80030114889F807
:1015500002408F233946224689F8013088F800403E
:1015600088F8014088F8024088F80340FFF74EF8F9
:1015700041F2883300934946424628460323FFF749
:10158000D8FB044839463246FFF740F8FEE700BF73
:1015900000380240000002405401002000100240C8
:1015A000AC00002000540040A08601000030014043
:1015B0001400002000380040F000002000500040DF
:1015C0006C00002000480040AC01002030010020E9
:1015D0007047000000000102030401020304060733
:1015E00008090000000000000000010203040607D3
:0215F0000809E8
:0C15F4000C000020000000000024F400A7
:040000050800018965
:00000001FF
